{
  "contractName": "SimpleStorage",
  "abi": [
    {
      "constant": true,
      "inputs": [],
      "name": "lastHashId",
      "outputs": [
        {
          "name": "",
          "type": "uint256"
        }
      ],
      "payable": false,
      "stateMutability": "view",
      "type": "function"
    },
    {
      "constant": true,
      "inputs": [
        {
          "name": "",
          "type": "uint256"
        }
      ],
      "name": "hashMap",
      "outputs": [
        {
          "name": "ipfsHash",
          "type": "string"
        }
      ],
      "payable": false,
      "stateMutability": "view",
      "type": "function"
    },
    {
      "inputs": [],
      "payable": false,
      "stateMutability": "nonpayable",
      "type": "constructor"
    },
    {
      "constant": false,
      "inputs": [
        {
          "name": "_ipfsHash",
          "type": "string"
        }
      ],
      "name": "set",
      "outputs": [],
      "payable": false,
      "stateMutability": "nonpayable",
      "type": "function"
    },
    {
      "constant": true,
      "inputs": [
        {
          "name": "_hashId",
          "type": "uint256"
        }
      ],
      "name": "get",
      "outputs": [
        {
          "name": "ipfsHash",
          "type": "string"
        }
      ],
      "payable": false,
      "stateMutability": "view",
      "type": "function"
    },
    {
      "constant": true,
      "inputs": [],
      "name": "getLastHash",
      "outputs": [
        {
          "name": "HashId",
          "type": "uint256"
        }
      ],
      "payable": false,
      "stateMutability": "view",
      "type": "function"
    }
  ],
  "bytecode": "0x608060405234801561001057600080fd5b50600060018190555061050c806100286000396000f30060806040526004361061006d576000357c0100000000000000000000000000000000000000000000000000000000900463ffffffff1680634a910046146100725780634ed3885e1461009d5780639507d39a146101065780639f749827146101ac578063b887726d146101d7575b600080fd5b34801561007e57600080fd5b5061008761027d565b6040518082815260200191505060405180910390f35b3480156100a957600080fd5b50610104600480360381019080803590602001908201803590602001908080601f0160208091040260200160405190810160405280939291908181526020018383808284378201915050505050509192919290505050610287565b005b34801561011257600080fd5b50610131600480360381019080803590602001909291905050506102c8565b6040518080602001828103825283818151815260200191508051906020019080838360005b83811015610171578082015181840152602081019050610156565b50505050905090810190601f16801561019e5780820380516001836020036101000a031916815260200191505b509250505060405180910390f35b3480156101b857600080fd5b506101c161037f565b6040518082815260200191505060405180910390f35b3480156101e357600080fd5b5061020260048036038101908080359060200190929190505050610385565b6040518080602001828103825283818151815260200191508051906020019080838360005b83811015610242578082015181840152602081019050610227565b50505050905090810190601f16801561026f5780820380516001836020036101000a031916815260200191505b509250505060405180910390f35b6000600154905090565b600060016000815460010191905081905590508160008083815260200190815260200160002060000190805190602001906102c392919061043b565b505050565b60606000808381526020019081526020016000206000018054600181600116156101000203166002900480601f0160208091040260200160405190810160405280929190818152602001828054600181600116156101000203166002900480156103735780601f1061034857610100808354040283529160200191610373565b820191906000526020600020905b81548152906001019060200180831161035657829003601f168201915b50505050509050919050565b60015481565b6000602052806000526040600020600091509050806000018054600181600116156101000203166002900480601f0160208091040260200160405190810160405280929190818152602001828054600181600116156101000203166002900480156104315780601f1061040657610100808354040283529160200191610431565b820191906000526020600020905b81548152906001019060200180831161041457829003601f168201915b5050505050905081565b828054600181600116156101000203166002900490600052602060002090601f016020900481019282601f1061047c57805160ff19168380011785556104aa565b828001600101855582156104aa579182015b828111156104a957825182559160200191906001019061048e565b5b5090506104b791906104bb565b5090565b6104dd91905b808211156104d95760008160009055506001016104c1565b5090565b905600a165627a7a7230582044058022d85952fe3459897a44436767fb864ade700fcafacd807ebc2da6f30b0029",
  "source": "pragma solidity 0.4.24;\n\ncontract SimpleStorage {\n    struct imageHash{\n       string ipfsHash;  \n    } \n    //Hash Map\n    mapping(uint => imageHash) public hashMap;\n    \n    uint public lastHashId;\n\n    function SimpleStorage() public {\n        lastHashId = 0;\n    }\n\n    function set(string _ipfsHash) public {\n        uint hashId = ++lastHashId;\n        hashMap[hashId].ipfsHash = _ipfsHash;\n    }\n\n    function get(uint _hashId ) constant public returns (string ipfsHash) {\n        return (hashMap[_hashId].ipfsHash);\n\n    }\n    function getLastHash() constant public returns (uint HashId){\n        return(lastHashId);\n    }\n}\n",
  "sourcePath": "/home/starcandy/datboicoin/contracts/SimpleStorage.sol",
  "compiler": {
    "name": "solc",
    "version": "0.4.24+commit.e67f0147.Emscripten.clang"
  },
  "schemaVersion": "2.0.1",
  "updatedAt": "2018-10-28T18:15:12.744Z"
}