{
  "contractName": "SimpleStorage",
  "abi": [
    {
      "constant": true,
      "inputs": [],
      "name": "lastHashId",
      "outputs": [
        {
          "name": "",
          "type": "uint256"
        }
      ],
      "payable": false,
      "stateMutability": "view",
      "type": "function"
    },
    {
      "constant": true,
      "inputs": [
        {
          "name": "",
          "type": "uint256"
        }
      ],
      "name": "hashMap",
      "outputs": [
        {
          "name": "ipfsHash",
          "type": "string"
        }
      ],
      "payable": false,
      "stateMutability": "view",
      "type": "function"
    },
    {
      "inputs": [],
      "payable": false,
      "stateMutability": "nonpayable",
      "type": "constructor"
    },
    {
      "constant": false,
      "inputs": [
        {
          "name": "_ipfsHash",
          "type": "string"
        }
      ],
      "name": "set",
      "outputs": [],
      "payable": false,
      "stateMutability": "nonpayable",
      "type": "function"
    },
    {
      "constant": true,
      "inputs": [
        {
          "name": "_hashId",
          "type": "uint256"
        }
      ],
      "name": "get",
      "outputs": [
        {
          "name": "ipfsHash",
          "type": "string"
        }
      ],
      "payable": false,
      "stateMutability": "view",
      "type": "function"
    }
  ],
  "bytecode": "0x608060405234801561001057600080fd5b5060006001819055506104cc806100286000396000f300608060405260043610610062576000357c0100000000000000000000000000000000000000000000000000000000900463ffffffff1680634ed3885e146100675780639507d39a146100d05780639f74982714610176578063b887726d146101a1575b600080fd5b34801561007357600080fd5b506100ce600480360381019080803590602001908201803590602001908080601f0160208091040260200160405190810160405280939291908181526020018383808284378201915050505050509192919290505050610247565b005b3480156100dc57600080fd5b506100fb60048036038101908080359060200190929190505050610288565b6040518080602001828103825283818151815260200191508051906020019080838360005b8381101561013b578082015181840152602081019050610120565b50505050905090810190601f1680156101685780820380516001836020036101000a031916815260200191505b509250505060405180910390f35b34801561018257600080fd5b5061018b61033f565b6040518082815260200191505060405180910390f35b3480156101ad57600080fd5b506101cc60048036038101908080359060200190929190505050610345565b6040518080602001828103825283818151815260200191508051906020019080838360005b8381101561020c5780820151818401526020810190506101f1565b50505050905090810190601f1680156102395780820380516001836020036101000a031916815260200191505b509250505060405180910390f35b600060016000815460010191905081905590508160008083815260200190815260200160002060000190805190602001906102839291906103fb565b505050565b60606000808381526020019081526020016000206000018054600181600116156101000203166002900480601f0160208091040260200160405190810160405280929190818152602001828054600181600116156101000203166002900480156103335780601f1061030857610100808354040283529160200191610333565b820191906000526020600020905b81548152906001019060200180831161031657829003601f168201915b50505050509050919050565b60015481565b6000602052806000526040600020600091509050806000018054600181600116156101000203166002900480601f0160208091040260200160405190810160405280929190818152602001828054600181600116156101000203166002900480156103f15780601f106103c6576101008083540402835291602001916103f1565b820191906000526020600020905b8154815290600101906020018083116103d457829003601f168201915b5050505050905081565b828054600181600116156101000203166002900490600052602060002090601f016020900481019282601f1061043c57805160ff191683800117855561046a565b8280016001018555821561046a579182015b8281111561046957825182559160200191906001019061044e565b5b509050610477919061047b565b5090565b61049d91905b80821115610499576000816000905550600101610481565b5090565b905600a165627a7a72305820823a2f80e74d70f4fe02efbcb44a6e928f37aad24249024a9f35fb9d4343c88d0029",
  "source": "pragma solidity 0.4.24;\n\ncontract SimpleStorage {\n    struct imageHash{\n       string ipfsHash;  \n    } \n    //Hash Map\n    mapping(uint => imageHash) public hashMap;\n    \n    uint public lastHashId;\n\n    constructor() public {\n        lastHashId = 0;\n    }\n\n    function set(string _ipfsHash) public {\n        uint hashId = ++lastHashId;\n        hashMap[hashId].ipfsHash = _ipfsHash;\n    }\n\n    function get(uint _hashId ) constant public returns (string ipfsHash) {\n        return (hashMap[_hashId].ipfsHash);\n\n    }\n}\n",
  "sourcePath": "/home/starcandy/datboicoin/contracts/SimpleStorage.sol",
  "compiler": {
    "name": "solc",
    "version": "0.4.24+commit.e67f0147.Emscripten.clang"
  },
  "schemaVersion": "2.0.1",
  "updatedAt": "2018-10-23T21:37:32.986Z"
}