{
  "contractName": "SimpleStorage",
  "abi": [
    {
      "constant": true,
      "inputs": [],
      "name": "lastHashId",
      "outputs": [
        {
          "name": "",
          "type": "uint256"
        }
      ],
      "payable": false,
      "stateMutability": "view",
      "type": "function"
    },
    {
      "constant": true,
      "inputs": [
        {
          "name": "",
          "type": "uint256"
        }
      ],
      "name": "hashMap",
      "outputs": [
        {
          "name": "ipfsHash",
          "type": "string"
        },
        {
          "name": "sender",
          "type": "address"
        },
        {
          "name": "timeStamp",
          "type": "uint256"
        }
      ],
      "payable": false,
      "stateMutability": "view",
      "type": "function"
    },
    {
      "inputs": [],
      "payable": false,
      "stateMutability": "nonpayable",
      "type": "constructor"
    },
    {
      "constant": false,
      "inputs": [
        {
          "name": "_ipfsHash",
          "type": "string"
        }
      ],
      "name": "set",
      "outputs": [],
      "payable": false,
      "stateMutability": "nonpayable",
      "type": "function"
    },
    {
      "constant": true,
      "inputs": [
        {
          "name": "_hashId",
          "type": "uint256"
        }
      ],
      "name": "get",
      "outputs": [
        {
          "name": "ipfsHash",
          "type": "string"
        },
        {
          "name": "sender",
          "type": "address"
        },
        {
          "name": "time",
          "type": "uint256"
        }
      ],
      "payable": false,
      "stateMutability": "view",
      "type": "function"
    },
    {
      "constant": true,
      "inputs": [],
      "name": "getLastHash",
      "outputs": [
        {
          "name": "HashId",
          "type": "uint256"
        }
      ],
      "payable": false,
      "stateMutability": "view",
      "type": "function"
    }
  ],
  "bytecode": "0x608060405234801561001057600080fd5b506000600181905550610672806100286000396000f30060806040526004361061006d576000357c0100000000000000000000000000000000000000000000000000000000900463ffffffff1680634a910046146100725780634ed3885e1461009d5780639507d39a146101065780639f749827146101e6578063b887726d14610211575b600080fd5b34801561007e57600080fd5b506100876102f1565b6040518082815260200191505060405180910390f35b3480156100a957600080fd5b50610104600480360381019080803590602001908201803590602001908080601f01602080910402602001604051908101604052809392919081815260200183838082843782019150505050505091929192905050506102fb565b005b34801561011257600080fd5b50610131600480360381019080803590602001909291905050506103aa565b60405180806020018473ffffffffffffffffffffffffffffffffffffffff1673ffffffffffffffffffffffffffffffffffffffff168152602001838152602001828103825285818151815260200191508051906020019080838360005b838110156101a957808201518184015260208101905061018e565b50505050905090810190601f1680156101d65780820380516001836020036101000a031916815260200191505b5094505050505060405180910390f35b3480156101f257600080fd5b506101fb6104b9565b6040518082815260200191505060405180910390f35b34801561021d57600080fd5b5061023c600480360381019080803590602001909291905050506104bf565b60405180806020018473ffffffffffffffffffffffffffffffffffffffff1673ffffffffffffffffffffffffffffffffffffffff168152602001838152602001828103825285818151815260200191508051906020019080838360005b838110156102b4578082015181840152602081019050610299565b50505050905090810190601f1680156102e15780820380516001836020036101000a031916815260200191505b5094505050505060405180910390f35b6000600154905090565b600060016000815460010191905081905590508160008083815260200190815260200160002060000190805190602001906103379291906105a1565b503360008083815260200190815260200160002060010160006101000a81548173ffffffffffffffffffffffffffffffffffffffff021916908373ffffffffffffffffffffffffffffffffffffffff16021790555042600080838152602001908152602001600020600201819055505050565b606060008060008085815260200190815260200160002060000160008086815260200190815260200160002060010160009054906101000a900473ffffffffffffffffffffffffffffffffffffffff1660008087815260200190815260200160002060020154828054600181600116156101000203166002900480601f0160208091040260200160405190810160405280929190818152602001828054600181600116156101000203166002900480156104a55780601f1061047a576101008083540402835291602001916104a5565b820191906000526020600020905b81548152906001019060200180831161048857829003601f168201915b505050505092509250925092509193909250565b60015481565b6000602052806000526040600020600091509050806000018054600181600116156101000203166002900480601f01602080910402602001604051908101604052809291908181526020018280546001816001161561010002031660029004801561056b5780601f106105405761010080835404028352916020019161056b565b820191906000526020600020905b81548152906001019060200180831161054e57829003601f168201915b5050505050908060010160009054906101000a900473ffffffffffffffffffffffffffffffffffffffff16908060020154905083565b828054600181600116156101000203166002900490600052602060002090601f016020900481019282601f106105e257805160ff1916838001178555610610565b82800160010185558215610610579182015b8281111561060f5782518255916020019190600101906105f4565b5b50905061061d9190610621565b5090565b61064391905b8082111561063f576000816000905550600101610627565b5090565b905600a165627a7a72305820f5b3b78d5cca0b1c16d991fee4914d1cea2edaf04c0a734bf3daaf491db2666e0029",
  "source": "pragma solidity 0.4.24;\n\ncontract SimpleStorage {\n    struct imageHash{\n        string ipfsHash;  \n        address sender;\n        uint timeStamp;\n    } \n    //Hash Map\n    mapping(uint => imageHash) public hashMap;\n    \n    uint public lastHashId;\n\n    function SimpleStorage() public {\n        lastHashId = 0;\n    }\n\n    function set(string _ipfsHash) public {\n        uint hashId = ++lastHashId;\n        hashMap[hashId].ipfsHash = _ipfsHash;\n        hashMap[hashId].sender = msg.sender;\n        hashMap[hashId].timeStamp = block.timestamp;\n    }\n\n    function get(uint _hashId ) constant public returns (string ipfsHash,address sender,uint time ) {\n        return (hashMap[_hashId].ipfsHash, hashMap[_hashId].sender, hashMap[_hashId].timeStamp);\n\n    }\n    function getLastHash() constant public returns (uint HashId){\n        return(lastHashId);\n    }\n}\n",
  "sourcePath": "/home/starcandy/datboicoin/contracts/SimpleStorage.sol",
  "compiler": {
    "name": "solc",
    "version": "0.4.24+commit.e67f0147.Emscripten.clang"
  },
  "schemaVersion": "2.0.1",
  "updatedAt": "2018-11-06T16:06:14.888Z"
}